:020000040800F2
:1000000000A00020A10C0008290C00082F0C0008FB
:10001000350C00083B0C0008410C000800000000F3
:10002000000000000000000000000000470C000875
:10003000550C000800000000630C0008710C00085B
:10004000F10C0008F10C0008F10C0008F10C00089C
:10005000F10C0008F10C0008F10C0008F10C00088C
:10006000F10C0008F10C0008F10C0008F10C00087C
:10007000F10C0008F10C0008F10C0008F10C00086C
:10008000F10C0008F10C0008F10C0008F10C00085C
:10009000F10C0008F10C0008F10C0008F10C00084C
:1000A000F10C0008F10C0008F10C0008F10C00083C
:1000B000F10C0008F10C0008F10C0008F10C00082C
:1000C000F10C0008F10C0008F10C0008F10C00081C
:1000D000F10C0008F10C0008F10C0008F10C00080C
:1000E000F10C0008F10C0008F10C0008F10C0008FC
:1000F000F10C0008F10C0008F10C0008F10C0008EC
:10010000000000000000000000000000F10C0008EA
:10011000F10C0008F10C0008F10C0008F10C0008CB
:10012000F10C0008F10C0008F10C0008F10C0008BB
:10013000F10C0008F10C00080000000000000000B5
:10014000F10C0008F10C0008F10C000800000000A0
:10015000000000000000000000000000000000009F
:100160000000000000000000F10C0008F10C000885
:10017000F10C00080000000000000000000000007A
:0801800000000000F10C000872
:1001880010B5054C237833B9044B13B10448AFF3C9
:1001980000800123237010BD0C0000200000000027
:1001A800981A000808B5034B1BB103490348AFF37D
:1001B800008008BD0000000010000020981A000808
:1001C80080B485B000AF7860084B5A6907497B68EE
:1001D80013434B61054B5A697B681340FB60FB680E
:1001E80000BF1437BD465DF8047B7047001002401D
:1001F80080B485B000AF78603960134A3B68DBB2E1
:10020800023352F823203B681B0CDB4302EA03014C
:100218003B681B0CFB60FB6893FAA3F3BB60BB68ED
:10022800B3FA83F3DBB21A467B6803FA02F2064894
:100238003B68DBB20A43023340F8232000BF14377F
:10024800BD465DF8047B70470000014080B489B06A
:1002580000AFF860B9607A60FB681A68BB687B61B8
:100268007B6993FAA3F33B613B69B3FA83F3DBB28F
:100278005B00032101FA03F3DB431A40BB68FB610F
:10028800FB6993FAA3F3BB61BB69B3FA83F3DBB2EF
:100298005B00796801FA03F31A43FB681A6000BF30
:1002A8002437BD465DF8047B704780B489B000AF41
:1002B800F860B9607A60FB68DA68BB687B617B6963
:1002C80093FAA3F33B613B69B3FA83F3DBB25B00B8
:1002D800032101FA03F3DB431A40BB68FB61FB69A6
:1002E80093FAA3F3BB61BB69B3FA83F3DBB25B0098
:1002F800796801FA03F31A43FB68DA6000BF243710
:10030800BD465DF8047B704780B483B000AF786069
:1003180039607B683A689A6200BF0C37BD465DF861
:10032800047B704780B58AB000AF07F11C03002238
:100338001A605A609A603B1D00221A605A609A60DF
:10034800DA601A615A614FF40010FFF739FF4FF471
:100358000020FFF735FF4FF48000FFF731FF4FF41F
:100368000030FFF72DFF4FF48020FFF729FF4FF6ED
:1003780008716348FFF7C8FF4FF070610420FFF76A
:1003880037FF60490420FFF733FF5F490420FFF778
:100398002FFF4FF470210420FFF72AFF4FF470015C
:1003A8000420FFF725FF002204215548FFF77DFFB1
:1003B800002210215248FFF778FF002220215048E0
:1003C800FFF773FF002201214D48FFF76EFF00225F
:1003D80002214B48FFF769FF002204214848FFF734
:1003E80035FF002210214648FFF730FF0022202168
:1003F8004348FFF72BFF002201214148FFF726FF62
:10040800002202213E48FFF721FF0423FB6100235D
:100418003B62012387F82430012387F82530012324
:1004280087F8263007F11C03184600F019FF10233F
:10043800FB6100233B62012387F82430012387F8FE
:100448002530012387F8263007F11C03184600F0F1
:1004580007FF2023FB6100233B62012387F8243038
:10046800012387F82530012387F8263007F11C037C
:10047800184600F0F5FE0123FB6100233B620123CF
:1004880087F82430012387F82530012387F82630A0
:1004980007F11C03184600F0E3FE0223FB6100236A
:1004A8003B62012387F82430012387F82530012394
:1004B80087F8263007F11C03184600F0D1FE4FF6E6
:1004C80008737B600123BB600023FB6000233B6152
:1004D80000237B613B1D1946094801F0B9F8012347
:1004E8007B600023BB6000237B613B1D19464FF0F6
:1004F800904001F0ADF800BF2837BD4680BD00BF71
:100508000010004801000F000100F00080B483B023
:1005180000AF78607B681B6823F400327B681A6040
:1005280000BF0C37BD465DF8047B704780B483B0CC
:1005380000AF78607B681B6823F400227B681A6030
:1005480000BF0C37BD465DF8047B704780B485B0AA
:1005580000AFF860B9607A60FB68DB6823F4FF637A
:1005680023F00603B9687A680A431A43FB68DA601D
:1005780000BF1437BD465DF8047B704780B483B074
:1005880000AF78607B68DB6823F400427B68DA6040
:1005980000BF0C37BD465DF8047B704780B483B05C
:1005A80000AF78607B685B6843F000727B685A60D4
:1005B80000BF0C37BD465DF8047B704780B485B03A
:1005C80000AF7860084B5A6907497B6813434B6151
:1005D800054B5A697B681340FB60FB6800BF143702
:1005E800BD465DF8047B70470010024080B485B0BA
:1005F80000AF7860084BDA6907497B681343CB6121
:10060800054BDA697B681340FB60FB6800BF143751
:10061800BD465DF8047B70470010024080B58EB07F
:1006280000AF07F11C0300221A605A609A60DA6072
:100638001A615A619A613B1D00221A605A609A60D9
:10064800DA601A615A614FF48020FFF7B7FFC023C0
:100658007B600223BB600323FB6001233B61012312
:100668007B610423BB613B1D1946184800F0F0FF6D
:100678004FF40010FFF7BAFF1548FFF78FFF144833
:10068800FFF77CFF1248FFF751FF1148FFF73EFFC5
:100698000023FB610F4B3B6200237B620023BB629C
:1006A8000023FB6200233B6300237B6307F11C03E9
:1006B8001946074801F0DFF8002200210448FFF737
:1006C80045FF00BF3837BD4680BD00BF0004004865
:1006D800005400400E09002080B400AF054B1B6891
:1006E800044A43F48023136000BFBD465DF8047BD1
:1006F800704700BF0010024080B400AF054B1B6874
:10070800044A43F48033136000BFBD465DF8047BA0
:10071800704700BF0010024080B400AF074B1B6851
:1007280003F40033B3F5003F0CBF01230023DBB211
:100738001846BD465DF8047B704700BF00100240B4
:1007480080B400AF054B1B68044A43F001031360F3
:1007580000BFBD465DF8047B704700BF0010024033
:1007680080B400AF064B1B6803F00203022B0CBFDA
:1007780001230023DBB21846BD465DF8047B7047B1
:100788000010024080B483B000AF7860074B1B684C
:1007980023F0F8027B68DB00044913430B6000BFB9
:1007A8000C37BD465DF8047B704700BF001002405F
:1007B80080B483B000AF7860064B5B6823F0030217
:1007C80004497B6813434B6000BF0C37BD465DF896
:1007D800047B70470010024080B400AF044B5B6894
:1007E80003F00C031846BD465DF8047B704700BF54
:1007F8000010024080B483B000AF7860064B5B689D
:1008080023F0F00204497B6813434B6000BF0C37A8
:10081800BD465DF8047B70470010024080B483B089
:1008280000AF7860064B5B6823F4E06204497B689C
:1008380013434B6000BF0C37BD465DF8047B70471F
:100848000010024080B483B000AF7860064B5B684C
:1008580023F4605204497B6813434B6000BF0C3794
:10086800BD465DF8047B70470010024080B483B039
:1008780000AF7860084B1A6B7B681B0EDB431A408D
:100888007B6823F07F43044913430B6300BF0C3795
:10089800BD465DF8047B70470010024080B483B009
:1008A80000AF7860064B5B6823F4800204497B68DC
:1008B80013434B6000BF0C37BD465DF8047B70479F
:1008C8000010024080B400AF054B1B68044A43F097
:1008D8008073136000BFBD465DF8047B704700BF9E
:1008E8000010024080B400AF074B1B6803F0007390
:1008F800B3F1007F0CBF01230023DBB21846BD46CD
:100908005DF8047B704700BF0010024080B483B0DC
:1009180000AF786039600E4B5B6823F474127B6813
:1009280003F480313B680B43094913434B60084B80
:10093800DB6A23F00F027B6803F00F0304491343BB
:10094800CB6200BF0C37BD465DF8047B704700BF23
:100958000010024080B483B000AF7860064B1B687B
:1009680023F0070204497B6813430B6000BF0C3770
:10097800BD465DF8047B70470020024080B400AF9C
:10098800044B1B6803F007031846BD465DF8047B5B
:10099800704700BF0020024080B500AF00F0A6F904
:1009A80000F012F8FFF7BEFCFFF738FE00F0BEF8C3
:1009B8004FF48071034800F008FB4FF4FA7000F020
:1009C800FBF9F5E70010004880B500AF0120FFF7FC
:1009D800C1FF00BFFFF7D2FF0346012BFAD1FFF793
:1009E8007BFEFFF789FE00BFFFF796FE0346012B4B
:1009F800FAD1FFF7A5FE00BFFFF7B2FE0346012BB1
:100A0800FAD11020FFF7BEFE4FF480114FF480306A
:100A1800FFF77CFFFFF756FF00BFFFF763FF0346B2
:100A2800012BFAD10020FFF7E5FE4FF48060FFF7B5
:100A3800F5FE0020FFF706FF0220FFF7B9FE00BF12
:100A4800FFF7CAFE0346082BFAD10A4800F0E4FF74
:100A5800002000F061F90346002B01D000F00CF8EB
:100A68004FF08050FFF702FF4FF48000FFF716FFAA
:100A780000BF80BD006CDC0280B400AF72B600BF5E
:100A8800FEE7000080B485B000AF7860084B5A6973
:100A980007497B6813434B61054B5A697B681340D0
:100AA800FB60FB6800BF1437BD465DF8047B7047E8
:100AB8000010024080B485B000AF7860084B9A6996
:100AC80007497B6813438B61054B9A697B68134020
:100AD800FB60FB6800BF1437BD465DF8047B7047B8
:100AE8000010024080B483B000AF786039607B6842
:100AF8005B6823F010023B681A437B685A6000BFAA
:100B08000C37BD465DF8047B704780B483B000AFF6
:100B180078607B685B6843F008027B685A6000BFB6
:100B28000C37BD465DF8047B7047000080B590B077
:100B380000AF07F1180328220021184600F0A0FF93
:100B48003B4600221A605A609A60DA601A615A615C
:100B58004FF48050FFF7AEFF4FF40030FFF792FFDD
:100B6800E0233B6002237B600323BB600023FB6020
:100B780000233B6105237B613B4619464FF09040BB
:100B880000F066FD0023BB614FF48273FB614FF4F4
:100B980040733B6200237B620023BB624FF4007307
:100BA800FB6208233B6300237B630023BB630723AB
:100BB800FB6307F118031946064800F0CEFE002132
:100BC8000448FFF78FFF0348FFF79FFF00BF403738
:100BD800BD4680BD0030014080B582B000AF0F4BEC
:100BE8009B690E4A43F0010393610C4B9B6903F028
:100BF80001037B607B68094BDB69084A43F080533B
:100C0800D361064BDB6903F080533B603B680720E8
:100C180000F0A8F900BF0837BD4680BD00100240AB
:100C280080B400AFFEE780B400AFFEE780B400AF49
:100C3800FEE780B400AFFEE780B400AFFEE780B403
:100C480000AF00BFBD465DF8047B704780B400AFBD
:100C580000BFBD465DF8047B704780B400AF00BF9D
:100C6800BD465DF8047B704780B500AF00F084F89E
:100C780000BF80BD80B400AF064BD3F88830054A6A
:100C880043F47003C2F8883000BFBD465DF8047BAA
:100C9800704700BF00ED00E0DFF834D00D480E4982
:100CA8000E4A002302E0D458C4500433C4188C42BE
:100CB800F9D30B4A0B4C002301E013600432A24223
:100CC800FBD3FFF7D7FF00F0B7FEFFF765FEFEE79F
:100CD80000A00020000000200C000020B81A000826
:100CE8000C0000202C000020FEE7000080B500AFBB
:100CF800084B1B68074A43F010031360032000F0F9
:100D080031F9002000F008F8FFF766FF00231846C5
:100D180080BD00BF0020024080B582B000AF78607F
:100D2800124B1A68124B1B7819464FF47A73B3FBAF
:100D3800F1F3B2FBF3F3184600F03BF90346002B3E
:100D480001D001230EE07B680F2B0AD800227968B6
:100D58004FF0FF3000F011F9064A7B68136000235A
:100D680000E0012318460837BD4680BD000000207A
:100D7800080000200400002080B400AF064B1B7858
:100D88001A46064B1B681344044A136000BFBD464D
:100D98005DF8047B704700BF080000202800002091
:100DA80080B400AF034B1B681846BD465DF8047B52
:100DB800704700BF2800002080B584B000AF78607D
:100DC800FFF7EEFFB8607B68FB60FB68B3F1FF3F9D
:100DD80005D00A4B1B781A46FB681344FB6000BF1A
:100DE800FFF7DEFF0246BB68D31AFA689A42F7D8C3
:100DF80000BF00BF1037BD4680BD00BF08000020FF
:100E080080B485B000AF78607B6803F00703FB60AF
:100E18000C4BDB68BB60BA684FF6FF031340BB603E
:100E2800FB681A02BB68134343F0BF6343F4003303
:100E3800BB60044ABB68D36000BF1437BD465DF889
:100E4800047B704700ED00E080B400AF044BDB6822
:100E58001B0A03F007031846BD465DF8047B70477C
:100E680000ED00E080B483B000AF03463960FB7149
:100E780097F90730002B0ADB3B68DAB20C4997F97F
:100E880007301201D2B20B4483F800230AE03B6812
:100E9800DAB20849FB7903F00F03043B1201D2B21E
:100EA8000B441A7600BF0C37BD465DF8047B7047CB
:100EB80000E100E000ED00E080B489B000AFF86028
:100EC800B9607A60FB6803F00703FB61FB69C3F153
:100ED8000703042B28BF0423BB61FB690433062BDB
:100EE80002D9FB69033B00E000237B614FF0FF322E
:100EF800BB6902FA03F3DA43BB681A407B699A407C
:100F08004FF0FF317B6901FA03F3D9437B680B404B
:100F1800134318462437BD465DF8047B704700002C
:100F280080B582B000AF78607B68013BB3F1807F09
:100F380001D301230FE00A4A7B68013B53600F216C
:100F48004FF0FF30FFF78EFF054B00229A60044BED
:100F580007221A60002318460837BD4680BD00BF27
:100F680010E000E080B582B000AF78607868FFF7E5
:100F780047FF00BF0837BD4680BD80B586B000AFCB
:100F88000346B9607A60FB7300237B61FFF75CFF5F
:100F980078617A68B9687869FFF78EFF024697F931
:100FA8000F3011461846FFF75DFF00BF1837BD46E2
:100FB80080BD80B582B000AF78607868FFF7B0FF79
:100FC800034618460837BD4680BD80B485B000AFDB
:100FD80078600B467B807B685B69FB607A88FB687E
:100FE80013401A04FB68D9437B880B401A437B687B
:100FF8009A6100BF1437BD465DF8047B7047000056
:1010080080B483B000AF7860054B1A6804497B68E8
:1010180013430B6000BF0C37BD465DF8047B704777
:101028000004014080B483B000AF7860054B1A6AB1
:1010380004497B6813430B6200BF0C37BD465DF85B
:10104800047B70470004014080B483B000AF78602F
:10105800064B1A687B68DB43044913400B6000BFEA
:101068000C37BD465DF8047B704700BF00040140A3
:1010780080B483B000AF7860064B1A6A7B68DB43A4
:10108800044913400B6200BF0C37BD465DF8047B72
:10109800704700BF0004014080B483B000AF78609F
:1010A800054B5A6804497B6813434B6000BF0C37F3
:1010B800BD465DF8047B70470004014080B483B0EE
:1010C80000AF7860054B5A6A04497B6813434B624A
:1010D80000BF0C37BD465DF8047B70470004014033
:1010E80080B483B000AF7860064B5A687B68DB43F6
:1010F800044913404B6000BF0C37BD465DF8047BC4
:10110800704700BF0004014080B483B000AF78602E
:10111800064B5A6A7B68DB43044913404B6200BFA5
:101128000C37BD465DF8047B704700BF00040140E2
:1011380080B483B000AF7860054B9A6804497B6837
:1011480013438B6000BF0C37BD465DF8047B7047C6
:101158000004014080B483B000AF7860054B9A6A00
:1011680004497B6813438B6200BF0C37BD465DF8AA
:10117800047B70470004014080B483B000AF7860FE
:10118800064B9A687B68DB43044913408B6000BFB9
:101198000C37BD465DF8047B704700BF0004014072
:1011A80080B483B000AF7860064B9A6A7B68DB43F3
:1011B800044913408B6200BF0C37BD465DF8047BC1
:1011C800704700BF0004014080B483B000AF78606E
:1011D800054BDA6804497B681343CB6000BF0C37C2
:1011E800BD465DF8047B70470004014080B483B0BD
:1011F80000AF7860054BDA6A04497B681343CB6219
:1012080000BF0C37BD465DF8047B70470004014001
:1012180080B483B000AF7860064BDA687B68DB4344
:1012280004491340CB6000BF0C37BD465DF8047B12
:10123800704700BF0004014080B483B000AF7860FD
:10124800064BDA6A7B68DB4304491340CB6200BF74
:101258000C37BD465DF8047B704700BF00040140B1
:1012680080B584B000AF78600023FB737B681B7A7D
:10127800002B00F0CD807B681B68002B61D07B6859
:101288005B7A022B1CD0022B25DC002B02D0012B11
:101298000BD020E07B681B681846FFF721FF7B68AE
:1012A8001B681846FFF7ACFE18E07B681B681846F9
:1012B800FFF7CAFE7B681B681846FFF7EDFE0DE0D6
:1012C8007B681B681846FFF79BFE7B681B681846FF
:1012D800FFF7E2FE02E00123FB7300BF7B689B7A05
:1012E800002B2ED07B689B7A032B1CD0032B25DC8C
:1012F800012B02D0022B0BD020E07B681B6818461C
:10130800FFF786FF7B681B681846FFF711FF19E097
:101318007B681B681846FFF72FFF7B681B68184619
:10132800FFF752FF0EE07B681B681846FFF700FFC7
:101338007B681B681846FFF747FF03E00123FB7330
:1013480000E000BF7B685B68002B76D07B685B7A27
:10135800022B1CD0022B25DC002B02D0012B0BD03A
:1013680020E07B685B681846FFF7CEFE7B685B6809
:101378001846FFF757FE18E07B685B681846FFF7CA
:1013880077FE7B685B681846FFF798FE0DE07B6880
:101398005B681846FFF746FE7B685B681846FFF7F0
:1013A8008DFE02E00123FB7300BF7B689B7A002B54
:1013B80043D07B689B7A032B1CD0032B25DC012BA5
:1013C80002D0022B0BD020E07B685B681846FFF741
:1013D80033FF7B685B681846FFF7BCFE2EE07B682E
:1013E8005B681846FFF7DCFE7B685B681846FFF70A
:1013F800FDFE23E07B685B681846FFF7ABFE7B6861
:101408005B681846FFF7F2FE18E00123FB7315E04E
:101418007B681B681846FFF717FE7B681B68184631
:10142800FFF75EFE7B685B681846FFF721FE7B6866
:101438005B681846FFF768FE00E000BFFB7B1846B4
:101448001037BD4680BD80B489B000AFF860B96080
:101458007A60FB681A68BB687B617B6993FAA3F3BF
:101468003B613B69B3FA83F3DBB25B00032101FA0A
:1014780003F3DB431A40BB68FB61FB6993FAA3F3F0
:10148800BB61BB69B3FA83F3DBB25B00796801FA2D
:1014980003F31A43FB681A6000BF2437BD465DF8A2
:1014A800047B704780B485B000AFF860B9607A609B
:1014B800FB685A68BB68DB431A40BB68796801FB64
:1014C80003F31A43FB685A6000BF1437BD465DF842
:1014D800047B704780B489B000AFF860B9607A6067
:1014E800FB689A68BB687B617B6993FAA3F33B61ED
:1014F8003B69B3FA83F3DBB25B00032101FA03F320
:10150800DB431A40BB68FB61FB6993FAA3F3BB6139
:10151800BB69B3FA83F3DBB25B00796801FA03F3C2
:101528001A43FB689A6000BF2437BD465DF8047B08
:10153800704780B489B000AFF860B9607A60FB6822
:10154800DA68BB687B617B6993FAA3F33B613B690B
:10155800B3FA83F3DBB25B00032101FA03F3DB4345
:101568001A40BB68FB61FB6993FAA3F3BB61BB69D3
:10157800B3FA83F3DBB25B00796801FA03F31A4329
:10158800FB68DA6000BF2437BD465DF8047B70470E
:1015980080B489B000AFF860B9607A60FB681A6AF5
:1015A800BB687B617B6993FAA3F33B613B69B3FA40
:1015B80083F3DBB29B000F2101FA03F3DB431A40EC
:1015C800BB68FB61FB6993FAA3F3BB61BB69B3FA20
:1015D80083F3DBB29B00796801FA03F31A43FB68D3
:1015E8001A6200BF2437BD465DF8047B704780B49B
:1015F80089B000AFF860B9607A60FB685A6ABB6866
:101608001B0A7B617B6993FAA3F33B613B69B3FADD
:1016180083F3DBB29B000F2101FA03F3DB431A408B
:10162800BB681B0AFB61FB6993FAA3F3BB61BB6947
:10163800B3FA83F3DBB29B00796801FA03F31A4328
:10164800FB685A6200BF2437BD465DF8047B7047CB
:1016580080B588B000AF786039603B681B687B61F3
:101668007B6993FAA3F33B613B69B3FA83F3DBB27B
:10167800FB6151E03B681A680121FB6901FA03F339
:101688001340BB61BB69002B43D03B685B68012BEF
:1016980003D03B685B68022B0ED13B689B681A46F7
:1016A800B9697868FFF716FF3B6819683B68DB681B
:1016B8001A467868FFF7F6FE3B681B691A46B9694F
:1016C8007868FFF736FF3B685B68022B1AD1BB6965
:1016D800FB60FB6893FAA3F3BB60BB68B3FA83F3C0
:1016E800DBB2072B07D83B685B691A46B96978688B
:1016F800FFF74EFF06E03B685B691A46B9697868F0
:10170800FFF775FF3B685B681A46B9697868FFF7A9
:101718009AFEFB690133FB613B681A68FB6922FA90
:1017280003F3002BA6D1002318462037BD4680BD01
:1017380080B483B000AF78607B681B6843F0010217
:101748007B681A6000BF0C37BD465DF8047B7047A4
:1017580080B483B000AF78607B681B6823F0010217
:101768007B681A6000BF0C37BD465DF8047B704784
:1017780080B485B000AFF860B9607A60FB681B6818
:1017880023F4F8527B681902BB680B431A43FB68C1
:101798001A6000BF1437BD465DF8047B704780B4FB
:1017A80085B000AFF860B9607A60FB689B6823F485
:1017B800FF6323F00703B9687A680A431A43FB6892
:1017C8009A6000BF1437BD465DF8047B704780B44B
:1017D80083B000AF78607B689B6843F400427B6805
:1017E8009A6000BF0C37BD465DF8047B704780B433
:1017F80083B000AF78607B689B6823F400427B6805
:101808009A6000BF0C37BD465DF8047B704780B412
:1018180083B000AF786039607B683A681A6100BFAE
:101828000C37BD465DF8047B704780B483B000AFC9
:10183800786039607B681B6823F440123B681A4360
:101848007B681A6000BF0C37BD465DF8047B7047A3
:1018580080B483B000AF786039607B685B6823F43C
:1018680000423B681A437B685A6000BF0C37BD468C
:101878005DF8047B704780B582B000AF786039604E
:101888007868FFF765FF3B6899683B68DB681A462C
:101898007868FFF76DFF3B685B6819467868FFF763
:1018A800B6FF7868FFF744FF7868FFF7A0FF3B684A
:1018B80019693B689B691A467868FFF770FF3B68AF
:1018C8001B69002B02D07868FFF781FF3B681B6813
:1018D80019467868FFF7A9FF3B685B69194678687D
:1018E800FFF7B6FF002318460837BD4680BD80B411
:1018F80083B000AF78607B681B6803F04003402B1F
:1019080001D1012300E0002318460C37BD465DF8DD
:10191800047B704780B483B000AF786039607B681F
:101928005B6823F480523B681A437B685A6000BFA7
:101938000C37BD465DF8047B704780B483B000AFB8
:10194800786039603B689BB21A467B681A6100BFB1
:101958000C37BD465DF8047B704780B584B000AF96
:10196800786039600123FB737868FFF7C0FF03468E
:10197800002B45D17B681B6823F47F4323F0BF030A
:101988003A6811683A68526811433A68D268114354
:101998003A68126911433A68526911433A68926980
:1019A80011433A68D26911433A68126A0A431A43E2
:1019B8007B681A607B685B6823F4706323F0040318
:1019C8003A6891683A685269120C0A431A437B686C
:1019D8005A603B689B68B3F5006F04D24FF480519E
:1019E8007868FFF797FF3B681B6AB3F5005F05D17E
:1019F8003B685B6A19467868FFF79FFF0023FB7313
:101A08007B68DB6923F400627B68DA61FB7B18463C
:101A18001037BD4680BD000080B483B000AF786049
:101A2800044A7B68136000BF0C37BD465DF8047B31
:101A3800704700BF0000002070B50D4D0D4C641BB1
:101A4800A4100026A64209D10B4D0C4C00F020F83A
:101A5800641BA4100026A64205D170BD55F8043BAE
:101A680098470136EEE755F8043B98470136F2E708
:101A7800B01A0008B01A0008B01A0008B41A000812
:101A880002440346934200D1704703F8011BF9E76B
:101A9800F8B500BFF8BC08BC9E467047F8B500BF53
:081AA800F8BC08BC9E46704723
:041AB000AD0100087C
:041AB400890100089C
:0C1AB80000127A00100000000100000085
:0400000508000CA142
:00000001FF
